:100000000C94A4000C94C6000C94C6000C94C6007A
:100010000C94C6000C94C6000C94C6000C94C60048
:100020000C94C6000C94C6000C94C6000C94C60038
:100030000C94C6000C94C6000C94C6000C94C60028
:100040000C94C6000C94C6000C94C6000C94C60018
:100050000C94C6000C94C6000C94C6000C94C60008
:100060000C94C6000C949E050C94F2050C94C600EA
:100070000C94C6000C94C6000C94C6000C94C600E8
:100080000C94671A0C94C6000C94C6000C94C6001D
:100090000C943C060C9490060C94C6000C94C6007C
:1000A0000C94C6000C94C6000C94C6000C94C600B8
:1000B0000C94C6000C94C6000C94C6000C94C600A8
:1000C0000C94C6000C94C6000C94C6000C94C60098
:1000D0000C94C6000C94C6000C94C6000C94C60088
:1000E0000C94C6000D0A0A0A476F6F646279652E88
:1000F0002E2E206E6F20737061636520666F7220F4
:1001000069646C65207461736B210D0A000D0A0A25
:100110004672656520486561702053697A653A20AA
:1001200025750D0A000D0A0A0A48656C6C6F205788
:100130006F726C64210D0A0080912614823018F0D1
:100140000E946A1AF9CFFFCF11241FBECFEFD1E270
:10015000DEBFCDBF00E00CBF12E0A0E0B2E0ECE6F5
:10016000F7E300E00BBF02C007900D92A231B10788
:10017000D9F71BBE14E1A2E1B2E001C01D92AA3B77
:10018000B107E1F70E94C8030C94B41B0C94000063
:100190008F938FB78F93F8948091B6148F5F80936D
:1001A000B6148091B7148F4F8093B7148091B81410
:1001B0008F4F8093B8148091B9148F4F8093B914E6
:1001C0008F918FBF8F910895FC0105900020E9F772
:1001D000809590958E0F9F1F0895DC0101C06D934F
:1001E00041505040E0F70895AEE0B0E0EAEFF0E0B3
:1001F0000C948B1B8C0177FF02C060E070E86150AB
:1002000070407E836D831A83098386E08C83CE01E0
:100210000196BA01A9010E9448012D813E8137FD56
:1002200009C0EF81F8852E173F070CF4F901E00FA4
:10023000F11F10822E96E4E00C94A71BAEE0B0E014
:10024000E4E2F1E00C948B1B8C0177FF02C060E0CC
:1002500070E8615070407E836D831A8309838EE05D
:100260008C83CE010196BA01A9010E9448012D811B
:100270003E8137FD09C0EF81F8852E173F070CF44A
:10028000F901E00FF11F10822E96E4E00C94A71BF9
:10029000ABE0B0E0EEE4F1E00C947D1B3C012B01FF
:1002A0005A01FC0117821682838181FD03C06FEF22
:1002B0007FEFC6C19AE0892E1E010894211C311CD3
:1002C000F3012381F20123FD859123FF81912F0109
:1002D000882309F4B2C1853239F423FD859123FFC7
:1002E00081912F01853229F490E0B3010E943B03F4
:1002F000E7CF982FFF24EE249924FFE1FF15D0F0DB
:100300009B3269F09C3228F4903259F0933291F488
:100310000EC09D3249F0903369F441E024C052E0B0
:10032000F52A84E0F82A28C098E0F92A25C0E0E1FF
:10033000FE2A22C0F7FC29C0892F80538A3070F42E
:10034000F6FE05C0989C902C1124980E15C0E89CD0
:10035000E02C1124E80EF0E2FF2A0EC09E3229F4B0
:10036000F6FC6BC140E4F42A07C09C3619F450E84F
:10037000F52A02C0983649F4F20123FD959123FF36
:1003800091912F01992309F0B8CF892F855483309B
:1003900018F08052833038F444E050E0A40EB51ECB
:1003A0005FE359830FC0933631F0933779F093357B
:1003B00009F056C020C0F5018081898342E050E0F9
:1003C000A40EB51E610101E010E012C0F501C0806D
:1003D000D180F6FC03C06FEF7FEF02C0692D70E0A3
:1003E00042E050E0A40EB51EC6010E9430038C010D
:1003F0005FE7F52214C0F501C080D180F6FC03C090
:100400006FEF7FEF02C0692D70E042E050E0A40E74
:10041000B51EC6010E9425038C0150E8F52AF3FEA3
:1004200007C01AC080E290E0B3010E943B03EA9447
:100430008E2D90E008171907A8F30EC0F601F7FCFF
:100440008591F7FE81916F0190E0B3010E943B031B
:10045000E110EA94015010400115110579F7EAC046
:10046000943611F0993669F5F7FE08C0F501208140
:1004700031814281538184E090E00AC0F50180819E
:1004800091819C01442737FD4095542F82E090E0F4
:10049000A80EB91E9FE6F92257FF09C05095409556
:1004A000309521953F4F4F4F5F4FE0E8FE2ACA013C
:1004B000B901A1012AE030E00E946703D82ED218CA
:1004C00040C0953729F41F2D1F7E2AE030E01DC063
:1004D0001F2D197F9F3661F0903720F4983509F071
:1004E000ACC00FC0903739F0983709F0A6C004C0EF
:1004F00028E030E00AC0106114FD146020E130E013
:1005000004C014FD166020E132E017FF08C0F501B9
:10051000608171818281938144E050E008C0F501DF
:1005200080819181BC0180E090E042E050E0A40E27
:10053000B51EA1010E946703D82ED2188FE7F82EAE
:10054000F122F6FE0BC05EEFF522D91438F4F4FE6A
:1005500007C0F2FC05C08FEEF82202C01D2D01C0BD
:10056000192DF4FE0DC0FE01ED0DF11D80818033CB
:1005700019F499EEF92208C01F5FF2FE05C003C00E
:100580008F2D867809F01F5F0F2DF3FC14C0F0FE4D
:100590000FC01E1510F09D2C0BC09D2C9E0C911AA7
:1005A0001E2D06C080E290E0B3010E943B031F5F56
:1005B0001E15C0F304C01E1510F4E11A01C0EE248C
:1005C00004FF0FC080E390E0B3010E943B0302FFF1
:1005D0001DC001FD03C088E790E00EC088E590E0F3
:1005E0000BC0802F867891F001FF02C08BE201C022
:1005F00080E2F7FC8DE290E0B3010E943B0306C06D
:1006000080E390E0B3010E943B039A94D914C0F3B5
:10061000DA94F101ED0DF11D808190E0B3010E94AB
:100620003B03DD20A9F706C080E290E0B3010E9401
:100630003B03EA94EE20C1F743CEF3016681778154
:10064000CB012B96E2E10C94991BFC0105906150C3
:1006500070400110D8F7809590958E0F9F1F0895D8
:10066000FC016150704001900110D8F78095909581
:100670008E0F9F1F08950F931F93CF93DF938C01CD
:10068000EB018B8181FF1BC082FF0DC02E813F815A
:100690008C819D812817390764F4E881F9810193E1
:1006A000F983E88306C0E885F985802F1995892BA1
:1006B00031F48E819F8101969F838E8302C00FEF5C
:1006C0001FEFC801DF91CF911F910F910895FA019B
:1006D000AA27283051F1203181F1E8946F936E7F81
:1006E0006E5F7F4F8F4F9F4FAF4FB1E03ED0B4E072
:1006F0003CD0670F781F891F9A1FA11D680F791FB3
:100700008A1F911DA11D6A0F711D811D911DA11DC3
:1007100020D009F468943F912AE0269F11243019D3
:10072000305D3193DEF6CF010895462F4770405D6E
:100730004193B3E00FD0C9F7F6CF462F4F70405D1D
:100740004A3318F0495D31FD4052419302D0A9F778
:10075000EACFB4E0A6959795879577956795BA9572
:10076000C9F700976105710508959B01AC010A2E38
:1007700006945795479537952795BA95C9F7620F0F
:10078000731F841F951FA01D0895279A2F9AFFCFCE
:10079000CDB7DEB7A097DEBFCDBF6E010894C11CF8
:1007A000D11CC60160E070E020E032EC41E050E096
:1007B0000FEF10E0E0E4EE2EF12C0E94C10AA6E754
:1007C000B4E1F60180E201900D928150E1F785E2FB
:1007D00091E00E9415078DE194E060E072E040E056
:1007E00051E020E030E003E0EE24FF24CC24DD24BF
:1007F000AA24BB240E947F170E94640C00D00F9291
:100800002DE031E0EDB7FEB73283218394838383FB
:100810000E94DD090F900F900F900F900E947B189F
:1008200084EE90E00E94150780E090E0A0960FB65D
:10083000F894DEBF0FBECDBF0895A2E0B0E0E3E2C2
:10084000F4E00C948B1B0E94E60D9A838983279A0F
:100850008E010F5F1F4F2F9AC80162E370E00E9464
:10086000D9152F98C80168EC70E00E94D915F3CF14
:10087000FC01808191810097C1F48091C00087FFC5
:1008800006C08091C6008091C00087FDFACF0FB6E8
:10089000F8940F92138212828085918595838483C8
:1008A000978386830F900FBE0895019781F702C04A
:1008B0008091CE008091C80087FDFACFE8CFFC017F
:1008C0000FB6F8940F92228133810F900FBEC901A9
:1008D0000895CF93DF93FC01DB010FB6F8940F92DC
:1008E000828193810F900FBE892BD9F03296EF0150
:1008F000EC81FD8121910FB6F8940F92FD83EC837A
:1009000088859985E817F90781F088819981019791
:10091000998388830F900FBE2C9381E0DF91CF9154
:10092000089580E0DF91CF9108958E819F819D830E
:100930008C83EBCFCF93DF93DC010FB6F8940F924B
:100940001E962D913C911F970F900FBE58968D913A
:100950009C91599728173907A9F11E96ED011E970A
:10096000EA81FB8160830FB6F8940F928A819B81A4
:1009700001969B838A83288539858217930709F41A
:100980003CC0888199810196998388830F900FBE1E
:100990008D919C91009749F48091C1008062809371
:1009A000C10081E0DF91CF910895019721F081E0AE
:1009B000DF91CF9108958091C90080628093C90032
:1009C00081E0F6CF85E8982F9A95F1F7982F9A95C0
:1009D000F1F7982F9A95F1F78A95F1F70FB6F894F9
:1009E0000F921E968D919C911F970F900FBE281706
:1009F000390709F0B2CF80E0D5CF8E819F819B83EC
:100A00008A83BFCF282F8091C00085FD08C095E85C
:100A1000892F8A95F1F78091C00085FFF9CF209347
:100A2000C60008958091C00087FD08C095E8892F11
:100A30008A95F1F78091C00087FFF9CF8091C000BF
:100A40008C7119F48091C60008958FEF08958091FC
:100A5000C000807808958091C00080720895FC01E4
:100A60000190F081E02D95E807C08091C000807270
:100A700061F4892F8A95F1F73097B9F3E130F105E8
:100A8000C1F78091C8008072A1F3309719F4609388
:100A9000C6000895319709F008956093CE00089537
:100AA000FC010190F081E02D95E807C08091C00025
:100AB000807861F4892F8A95F1F73097B9F3E130A6
:100AC000F105C1F78091C8008078A1F3309731F427
:100AD0008091C0008C7159F08FEF08953197E1F744
:100AE0008091C8008C71C1F78091CE0008958091EB
:100AF000C6000895FC010190F081E02D309721F4AB
:100B00008091C00080780895319711F080E00895B9
:100B10008091C80080780895FC010190F081E02D5B
:100B2000309721F48091C00080720895319711F0C0
:100B300080E008958091C800807208951F920F92FE
:100B40000FB60F920BB60F9211242F933F934F9332
:100B50008F939F93CF93DF93EF93FF938091C00088
:100B60008C7159F54091C6000FB6F8940F92209100
:100B70007814309179140F900FBE80918214909167
:100B8000831428173907C9F0C8E7D4E1EA81FB814B
:100B900040830FB6F8940F928A819B8101969B83C4
:100BA0008A832885398582179307B9F088819981CE
:100BB0000196998388830F900FBEFF91EF91DF918B
:100BC000CF919F918F914F913F912F910F900BBE9D
:100BD0000F900FBE0F901F9018958E819F819B8361
:100BE0008A83E4CF1F920F920FB60F920BB60F922B
:100BF00011242F938F939F93CF93DF93EF93FF93C2
:100C00000FB6F8940F9280918414909185140F90F0
:100C10000FBE892B31F1C4E8D4E1EC81FD81219133
:100C20000FB6F8940F92FD83EC8388859985E817B9
:100C3000F907E9F0888199810197998388830F905A
:100C40000FBE2093C600FF91EF91DF91CF919F914E
:100C50008F912F910F900BBE0F900FBE0F901F9092
:100C600018958091C1008F7D8093C100ECCF8E815B
:100C70009F819D838C83DECF1F920F920FB60F92C0
:100C80000BB60F9211242F933F934F938F939F9303
:100C9000CF93DF93EF93FF938091C8008C7159F548
:100CA0004091CE000FB6F8940F9220919814309195
:100CB00099140F900FBE8091A2149091A31428173D
:100CC0003907C9F0C8E9D4E1EA81FB8140830FB656
:100CD000F8940F928A819B8101969B838A83288551
:100CE000398582179307B9F0888199810196998394
:100CF00088830F900FBEFF91EF91DF91CF919F916D
:100D00008F914F913F912F910F900BBE0F900FBE7F
:100D10000F901F9018958E819F819B838A83E4CFCB
:100D20001F920F920FB60F920BB60F9211242F93B2
:100D30008F939F93CF93DF93EF93FF930FB6F89426
:100D40000F928091A4149091A5140F900FBE892B3F
:100D500031F1C4EAD4E1EC81FD8121910FB6F89420
:100D60000F92FD83EC8388859985E817F907E9F0F0
:100D7000888199810197998388830F900FBE209372
:100D8000CE00FF91EF91DF91CF919F918F912F91A5
:100D90000F900BBE0F900FBE0F901F901895809173
:100DA000C9008F7D8093C900ECCF8E819F819D8388
:100DB0008C83DECF0F931F93CF93DF938C01EB01D6
:100DC000CB010E94E400DC01009721F1F801808151
:100DD000918140E050E035E8FE01E40FF51F4F5FE0
:100DE0005F4F649107C02091C000207261F4232FEF
:100DF0002A95F1F70097B9F381309105C1F7209159
:100E0000C8002072A1F3009751F46093C6004A17FE
:100E10005B0710F3DF91CF911F910F9108958130FF
:100E20009105A9F76093CE00F2CFCF93DF93EC0149
:100E30000E94E400BC010097C9F020E030E045E8E2
:100E4000FE01E20FF31F2F5F3F4F54918091C000CE
:100E500085FD07C0842F8A95F1F78091C00085FF3A
:100E6000F9CF5093C6002617370750F3DF91CF9183
:100E70000895A0E0B0E0EFE3F7E00C94871B8C014D
:100E80007B01CB010E94E400DC01009709F451C012
:100E90008EE0C82ED12CC00ED11E40E050E075E887
:100EA00009C08091C10080628093C1004A175B072E
:100EB00008F03FC0F701E40FF51F4F5F5F4F6491EB
:100EC0000FB6F8940F92F801268537850F900FBE64
:100ED000F801808D918D2817390781F1E601EA81AB
:100EE000FB8160830FB6F8940F928A819B810196F3
:100EF0009B838A83288539858217930709F437C035
:100F0000888199810196998388830F900FBEF8019B
:100F100080819181009709F4C4CF019709F0C6CF71
:100F20008091C90080628093C9004A175B0708F46A
:100F3000C1CFCDB7DEB7E8E00C94A31B872F8A950D
:100F4000F1F7872F8A95F1F7872F8A95F1F7872F89
:100F50008A95F1F70FB6F8940F92F8018685978578
:100F60000F900FBE2817390709F0B8CF9FCF8E8199
:100F70009F819B838A83C4CFEF92FF920F931F932D
:100F8000CF93DF938C010E94E400DC01009709F409
:100F900053C040E050E094E8E92E94E1F92E75E862
:100FA00009C08091C10080628093C1004A175B072D
:100FB00008F042C0F801E40FF51F4F5F5F4F6491E6
:100FC0000FB6F8940F9220918414309185140F90ED
:100FD0000FBE80918E1490918F142817390789F1D4
:100FE000E701EA81FB8160830FB6F8940F928A8152
:100FF0009B8101969B838A83288539858217930775
:1010000009F439C0888199810196998388830F906A
:101010000FBE8091761490917714009709F4C1CF98
:10102000019709F0C3CF8091C90080628093C90005
:101030004A175B0708F4BECFCDB7DEB7E6E00C94E5
:10104000A51B872F8A95F1F7872F8A95F1F7872FB0
:101050008A95F1F7872F8A95F1F70FB6F8940F92DA
:1010600080918414909185140F900FBE2817390732
:1010700009F0B6CF9BCF8E819F819B838A83C2CF9D
:10108000CF93DF93EC01DB010D900020E9F711977E
:10109000A61BB70B19F18881998140E050E035E833
:1010A000FB01E40FF51FE0814F5F5F4F07C0209108
:1010B000C000207261F4232F2A95F1F70097B9F34D
:1010C00081309105C1F72091C8002072A1F30097EB
:1010D00041F4E093C6004A175B0710F3DF91CF910C
:1010E000089581309105B9F7E093CE00F4CFBC01AB
:1010F000DC010D900020E9F71197A81BB90BC9F08E
:1011000020E030E045E8FB01E20FF31FE0812F5FB4
:101110003F4F8091C00085FD07C0842F8A95F1F76D
:101120008091C00085FFF9CFE093C6002A173B07E6
:1011300050F30895A0E0B0E0E0EAF8E00C94871BDB
:10114000DC017B01EB0109900020E9F7BE01615051
:1011500070406E197F092EE0C22ED12CC80ED91E08
:1011600040E050E005E807C08091C10080628093B4
:10117000C1004F5F5F4F4617570708F05BC0F7018C
:10118000E40FF51F10810FB6F8940F921E962D9163
:101190003C911F970F900FBE58968D919C91599737
:1011A0002817390741F1E601EA81FB8110830FB668
:1011B000F8940F928A819B8101969B838A8328856C
:1011C00039858217930709F430C088819981019687
:1011D000998388830F900FBE8D919C9111970097F2
:1011E00009F4C2CF019709F0C4CF8091C900806291
:1011F0008093C900BECF802F8A95F1F7802F8A9502
:10120000F1F7802F8A95F1F7802F8A95F1F70FB6C5
:10121000F8940F921E968D919C911F970F900FBE80
:101220002817390709F0BFCFA4CF8E819F819B83F8
:101230008A83CBCFCDB7DEB7E8E00C94A31BEF9247
:10124000FF920F931F93CF93DF938C01DC010D90DE
:101250000020E9F71197A81BB90B40E050E034E8F3
:10126000E32E34E1F32E75E807C08091C10080625F
:101270008093C1004F5F5F4F4A175B0708F05CC067
:10128000F801E40FF51F60810FB6F8940F922091DA
:101290008414309185140F900FBE80918E1490911C
:1012A0008F142817390749F1E701EA81FB81608330
:1012B0000FB6F8940F928A819B8101969B838A8353
:1012C000288539858217930709F431C0888199816F
:1012D0000196998388830F900FBE80917614909128
:1012E0007714009709F4C1CF019709F0C3CF80911B
:1012F000C90080628093C900BDCF872F8A95F1F71E
:10130000872F8A95F1F7872F8A95F1F7872F8A958E
:10131000F1F70FB6F8940F92809184149091851490
:101320000F900FBE2817390709F0BECFA3CF8E81CB
:101330009F819B838A83CACFCDB7DEB7E6E00C944A
:10134000A51BA0E0B0E0E7EAF9E00C948B1B088550
:101350001985FE013C96D8015E968D919C915F9710
:10136000019741F495E8892F8A95F1F7892F8A959D
:10137000F1F7F9CF81E090E0D8015F969C938E93CE
:101380005E975C966D917C915D975A968D919C913C
:101390005B974A855B859F010E941E01F801628D63
:1013A000738DC8010E944008D8015F961C921E925E
:1013B0005E972096E4E00C94A71BA0E0B0E0E3EE7B
:1013C000F9E00C948D1BFE0136964191519180916C
:1013D000941490919514019741F495E8892F8A957A
:1013E000F1F7892F8A95F1F7F9CF81E090E090939A
:1013F0009514809394146091921470919314809139
:101400009014909191149F010E941E01809190145C
:10141000909191140E947708109295141092941450
:101420002096E2E00C94A91BA0E0B0E0EAE1FAE02B
:101430000C948B1B08851985FE013C96D8015E969D
:101440008D919C915F97019741F495E8892F8A953A
:10145000F1F7892F8A95F1F7F9CF81E090E0D80173
:101460005F969C938E935E975C966D917C915D9751
:101470005A968D919C915B974A855B859F010E944E
:10148000F400F801628D738DC8010E944008D801F4
:101490005F961C921E925E972096E4E00C94A71B28
:1014A000A0E0B0E0E6E5FAE00C948D1BFE01369674
:1014B000419151918091941490919514019741F428
:1014C00095E8892F8A95F1F7892F8A95F1F7F9CF59
:1014D00081E090E09093951480939414609192141D
:1014E0007091931480919014909191149F010E9497
:1014F000F40080919014909191140E9477081092BA
:101500009514109294142096E2E00C94A91B0F936A
:101510001F938C01FC01828D938D0E946F0CF8014A
:10152000808591850E946F0CF801848995890E94BD
:101530006F0C0FB6F8940F92F8018081918100979B
:1015400079F48091C1008F7D8093C1008091C100AA
:101550008F778093C1000F900FBE1F910F91089558
:101560000197C9F78091C9008F7D8093C900809150
:10157000C9008F778093C9000F900FBE1F910F9104
:101580000895A0E2B0E0E7ECFAE00C94811B782E1D
:10159000692E4B0159016A01C7010E94E20C9C01AE
:1015A0000097A9F0FE0133960FB6F8940F921182BE
:1015B00010828283338384833583978386832E0DC1
:1015C0003F1D31872087F386E2860F900FBEC8014A
:1015D0000E94E20C9C010097A9F0FE013F960FB615
:1015E000F8940F921182108282833383848335832F
:1015F00097838683200F311F3187208713870287C7
:101600000F900FBEC8010E94E20C9C018B8F3C8F93
:101610009A82898218A21F8E0FB6F8940F92898140
:101620009A81009709F042C0C601B5016050774F1A
:10163000824C9F4F660F771F881F991F660F771F79
:10164000881F991FAA0CBB1CCC1CDD1CAA0CBB1C40
:10165000CC1CDD1CAA0CBB1CCC1CDD1CA6019501FE
:101660000E945B1B215030403093C5002093C40082
:1016700082E08093C00088E98093C10086E0809377
:10168000C2000F900FBE1E8F0D8F872D962D9C01CF
:10169000D901FE01319680E201900D928150E1F76F
:1016A000872D962DA096EEE00C949D1B019749F78F
:1016B000C601B5016050774F824C9F4F660F771F70
:1016C000881F991F660F771F881F991FAA0CBB1CC4
:1016D000CC1CDD1CAA0CBB1CCC1CDD1CAA0CBB1C2E
:1016E000CC1CDD1CA60195010E945B1B21503040E3
:1016F0003093CD002093CC0082E08093C80088E92D
:101700008093C90086E08093CA00BBCFA0E0B0E020
:10171000ECE8FBE00C94891B0A851B85CE010E9634
:10172000F82EE92EF801868D978D019739F40E94E5
:101730006A1AF801868D978D0197C9F381E090E0D0
:10174000F801978F868F648D758D828D938D4C8572
:101750005D852F2D3E2D0E941E01F801628D738D37
:10176000C8010E949A08F801178E168E2096E6E0AE
:101770000C94A51BA0E0B0E0E0ECFBE00C94891B0E
:101780000A851B85CE010E96F82EE92EF801868D6E
:10179000978D019739F40E946A1AF801868D978D0A
:1017A0000197C9F381E090E0F801978F868F648DEF
:1017B000758D828D938D4C855D852F2D3E2D0E94DC
:1017C000F400F801628D738DC8010E949A08F80137
:1017D000178E168E2096E6E00C94A51BA0E0B0E0D4
:1017E000E4EFFBE00C94891BFE013A960191119104
:1017F000FE2EEF2E8091941490919514019741F450
:101800000E946A1A80919414909195140197C1F3E3
:1018100081E090E0909395148093941460919214D9
:10182000709193148091901490919114A8012F2D90
:101830003E2D0E941E0180919014909191140E945F
:101840001F0910929514109294142096E6E00C94BF
:10185000A51BA0E0B0E0EFE2FCE00C94891BFE01C8
:101860003A9601911191FE2EEF2E80919414909151
:101870009514019741F40E946A1A809194149091F2
:1018800095140197C1F381E090E0909395148093B3
:10189000941460919214709193148091901490918B
:1018A0009114A8012F2D3E2D0E94F40080919014D8
:1018B000909191140E941F09109295141092941403
:1018C0002096E6E00C94A51B80910E0290910F02E9
:1018D000089580910C0290910D02089508950F9340
:1018E0001F93CF93DF93009789F0EC0124974A81EF
:1018F0005B812091120230911302C9018423952348
:10190000892B21F088819981892B29F0DF91CF9152
:101910001F910F91089520953095242335233B8303
:101920002A830E94E00D0A811B8180910E02909112
:101930000F02800F911F90930F0280930E02E6E139
:10194000F4E101C0FC01808191818C179D07D0F3E7
:10195000BF019F0142815381CF01840F951FC8179A
:10196000D90749F1FE019E01EB01A881B981200F41
:10197000311FA217B30759F0B183A0836E177F07F9
:1019800019F0DB01ED93FC930E94F911BFCF809118
:10199000140290911502A817B90771F312968D9150
:1019A0009C911397800F911F938382838D919C91BB
:1019B00091838083E3CFCA01800F911F9383828339
:1019C0008C01D2CFA0E0B0E0E8EEFCE00C94851BE7
:1019D000EC010E94E00D8091140290911502892B78
:1019E00099F04091120250911302CE018423952365
:1019F000892BE1F1C0E0D0E00E94F911CE01CDB712
:101A0000DEB7EAE00C94A11B87E192E090931714F3
:101A100080931614109219141092181422E134E1D4
:101A2000309315022093140210921514109214147E
:101A300010921314109212148BEF91E190931A02EA
:101A400080931902309318022093170280910E029E
:101A500090910F02049790930F0280930E0280E002
:101A600090E89093130280931202BBCF209711F25B
:101A7000BE016C5F7F4F09F4BDCFA0900E02B09005
:101A80000F02A616B70608F4B5CF009116141091F0
:101A90001714A6E1B4E106C088819981009741F04E
:101AA0008C01DE01E801EA81FB81E617F707A0F36C
:101AB000E0901402F09015020E151F0509F49ACF5C
:101AC000CD90DC901197E801888199818D939C934A
:101AD000CF01861B970B8930910590F1D801A60F95
:101AE000B71F13969C938E931297F80173836283AA
:101AF000E6E1F4E101C0FC01808191818A179B0736
:101B0000D0F3EF019F0162817381CF01860F971F90
:101B1000A817B90799F1FD019D0162817381A88120
:101B2000B981260F371FA217B307B9F1B183A0837C
:101B3000CE17DF0761F1F983E883E801EA81FB81D1
:101B400095012E1B3F0B30930F0220930E028091C4
:101B50000C0290910D022817390720F430930D02E2
:101B600020930C02E6012496E42BF52BD801139662
:101B7000FC93EE9312971D921C923ECF12968D917C
:101B80009C911397860F971F93838283C6CFD801AA
:101B90001296ED91FC911397D3CFEA16FB0669F0EC
:101BA00012968D919C911397860F971F9383828332
:101BB0008D919C9191838083BBCFF182E082B8CFDD
:101BC000809121148F5F8093211408950FB6F894AB
:101BD0000F9220911E1430911F140F900FBEC90157
:101BE000089520911E1430911F14C9010895809109
:101BF00023140895FC0180912014808380911E1489
:101C000090911F14928381830895FC01DB010FB62C
:101C1000F8940F9260911E1470911F142D913C91B5
:101C200011978FEF2F3F3807F9F0909120148081A2
:101C30008917F1F0418152816417750708F5CB01CE
:101C4000841B950B82179307D8F4261B370B240FA0
:101C5000351F2D933C9380912014808380911E1416
:101C600090911F149283818380E00F900FBE08959E
:101C700041815281CB01841B950B8217930728F376
:101C800081E00F900FBE089581E080931D140895A8
:101C90000097B1F0FC01A789B08D8C91853AA9F429
:101CA00020E030E040E050E02F5F3F4F4F4F5F4F6C
:101CB000FD01E20FF31F8081853AB1F3822F089571
:101CC000E0911A14F0911B14E6CF80E00895209162
:101CD0001A1430911B14C9010895E0911A14F0915F
:101CE0001B1484859585A0911A14B0911B14E09162
:101CF0001A14F0911B14468924E030E0241B3109AA
:101D00001D963C932E931C9708950F931F93CF938A
:101D1000DF93EC01009731F19E8989A1981711F1A9
:101D20008E010E5F1F4FC8010E94301B29A12E8B10
:101D30008C859D8597FD06C084E090E0821B91090B
:101D40009D878C879E8980911C14891710F490932D
:101D50001C1489E0989FC00111248A5D9B4EB80134
:101D60000E94DF1ADF91CF911F910F9108950F9379
:101D70001F93CF93DF93EC01009741F13E89E091EF
:101D80001A14F0911B148689381700F58C859D85EF
:101D900097FD0BC0E0911A14F0911B14268984E082
:101DA00090E0821B91099D878C8789E0389FC00154
:101DB00011248A5D9B4E2A853B852817390759F0E7
:101DC000E0911A14F0911B1486898E8BDF91CF91CC
:101DD0001F910F9108958E010E5F1F4FC8010E9441
:101DE000301BE0911A14F0911B1496899E8B809100
:101DF0001C14891710F490931C1489E0989FC0015B
:101E000011248A5D9B4EB8010E94DF1ADFCF0F9329
:101E10001F93CF93DF93FC01706871836083C68149
:101E2000D7810E94301B8E010E5F1F4FC8010E9498
:101E3000301B9E8980911C14891710F490931C14F8
:101E400089E0989FC00111248A5D9B4EB8010E94D1
:101E5000DF1AE0911A14F0911B149E898689891764
:101E600040F481E080931D14DF91CF911F910F9179
:101E7000089580E0DF91CF911F910F9108950F9306
:101E80001F93CF93DF93DC011596ED91FC9116978C
:101E900006811781E8012C96CE010E94301B8091AB
:101EA0002114882331F5E8012296CE010E94301BCF
:101EB000F801968980911C14891708F189E0989F90
:101EC000C00111248A5D9B4EBE010E94DF1AE09181
:101ED0001A14F0911B14D80156969C918689891783
:101EE00088F481E080931D14DF91CF911F910F91B1
:101EF000089580E694E1BE010E94DF1AE8CF909336
:101F00001C14DCCF80E0DF91CF911F910F910895D9
:101F1000A0E0B0E0EEE8FFE00C94871B8091211474
:101F2000882309F089C080911E1490911F14019696
:101F300090931F1480931E14E0901E14F0901F14B1
:101F4000E114F10419F520915C1430915D14809135
:101F50005E1490915F1490935D1480935C143093A1
:101F60005F1420935E14809120148F5F809320145F
:101F7000E0915C14F0915D148081882309F086C0A3
:101F80008FEF9FEF909311028093100280911002C7
:101F900090911102E816F90608F460C0DD2439E0DA
:101FA000C32EE0915C14F0915D1480818823E9F1E7
:101FB000E0915C14F0915D140580F681E02DC681FE
:101FC000D7818A819B81E816F90608F477C08E01D3
:101FD0000E5F1F4FC8010E94301B8C899D89892B81
:101FE00021F0CE010C960E94301B9E8980911C141A
:101FF000891710F490931C149C9DC00111248A5DD4
:102000009B4EB8010E94DF1AE0911A14F0911B1444
:102010009E898689981728F2DD24D394E0915C1478
:10202000F0915D148081882319F68FEF9FEF9093D4
:1020300011028093100213C0809122148F5F80934D
:102040002214DD2480911D14882311F0DD24D39403
:102050008D2DCDB7DEB7E8E00C94A31BDD24E09115
:102060001A14F0911B14868990E0FC01EE0FFF1FFB
:10207000EE0FFF1FEE0FFF1FE80FF91FEA5DFB4E8B
:1020800080818230F8F2DD24D394DCCFE0915C14BF
:10209000F0915D140580F681E02D0680F781E02D3A
:1020A000828193819093110280931002809110029B
:1020B00090911102E816F90688F270CF9093110200
:1020C00080931002CCCFDF92EF92FF920F931F9379
:1020D000CF93DF93EC018A859B858956944141F02B
:1020E00010E0812FCDB7DEB7E7E00C94A41B42C00F
:1020F0008C899D8924E18036920791F3892B81F7A1
:1021000080912114882349F5DE88E0911A14F0911A
:102110001B14068942E0E42EF12CEC0EFD1EC701D3
:102120000E94301B6E8980911C14861710F46093F6
:102130001C1410E0D01608F011E089E0689FC0017F
:1021400011248A5D9B4EB7010E94DF1A812FCDB703
:10215000DEB7E7E00C94A41B0DC02C9680E694E15A
:10216000BE010E94DF1A10E0812FCDB7DEB7E7E095
:102170000C94A41B0F931F93CF93DF938A01E091DC
:102180001A14F0911B1470687587648760911A1493
:1021900070911B14645F7F4F0E94DF1A80911A14A4
:1021A00090911B1402960E94301B8FEF0F3F18076F
:1021B00009F440C0C0911E14D0911F14C00FD11F4C
:1021C000E0911A14F0911B14D383C28380911E14E2
:1021D00090911F14C817D907E0F080915C1490917A
:1021E0005D1460911A1470911B146E5F7F4F0E94F2
:1021F000FE1A8091100290911102C817D90720F49D
:10220000D0931102C0931002DF91CF911F910F91D3
:10221000089580915E1490915F1460911A147091EA
:102220001B146E5F7F4F0E94FE1ADF91CF911F91AA
:102230000F91089560911A1470911B146E5F7F4F77
:1022400089E694E10E94DF1ADF91CF911F910F91EF
:1022500008950F931F93CF93DF938B0160911A140E
:1022600070911B14645F7F4F0E94FE1A80911A14B4
:1022700090911B1402960E94301B8FEF0F3F18079E
:1022800009F440C0C0911E14D0911F14C00FD11F7B
:10229000E0911A14F0911B14D383C28380911E1411
:1022A00090911F14C817D907E0F080915C149091A9
:1022B0005D1460911A1470911B146E5F7F4F0E9421
:1022C000FE1A8091100290911102C817D90720F4CC
:1022D000D0931102C0931002DF91CF911F910F9103
:1022E000089580915E1490915F1460911A1470911A
:1022F0001B146E5F7F4F0E94FE1ADF91CF911F91DA
:102300000F91089560911A1470911B146E5F7F4FA6
:1023100089E694E10E94DF1ADF91CF911F910F911E
:10232000089580912114882309F055C010921D143E
:10233000E0911A14F0911B14A0911A14B0911B147F
:102340002081318157968D919C91589782179307E0
:1023500090F080911A1490911B1460911A1470914E
:102360001B14675E7F4F0E94C50305C080911C143B
:10237000815080931C1480911C1490E0FC01EE0F9E
:10238000FF1FEE0FFF1FEE0FFF1FE80FF91FEA5DA3
:10239000FB4E8081882351F390911C1489E0989F13
:1023A000D0011124AA5DBB4E1196ED91FC911297BC
:1023B0000280F381E02D1296FC93EE931197CD01EC
:1023C0000396E817F90759F08681978190931B14BB
:1023D00080931A14089581E080931D1408958281DA
:1023E000938111968C93119712969C939C01F901FD
:1023F000EBCFA0E0B0E0EFEFF1E10C94841B0FB65F
:10240000F8940F928091211481508093211480912F
:102410002114882309F0EDC080912314882309F446
:10242000E8C0E9E0FE2EEE24E39480916014882356
:1024300069F1E0916514F0916614C681D781CE01EF
:102440000C960E94301B8E010E5F1F4FC8010E9428
:10245000301B9E8980911C14891710F490931C14D2
:102460009F9DC00111248A5D9B4EB8010E94DF1A16
:10247000E0911A14F0911B149E8986899817A8F28E
:10248000E0921D1480916014882399F680912214A3
:10249000882309F4AAC080912214882309F4A5C0D6
:1024A00079E0C72EAA24AA94BA2C992493948091F7
:1024B0002114882309F083C080911E1490911F1469
:1024C000019690931F1480931E14E0901E14F090B8
:1024D0001F14E114F10409F520915C1430915D148E
:1024E00080915E1490915F1490935D1480935C14BE
:1024F00030935F1420935E14809120148F5F80933B
:102500002014E0915C14F0915D148081882309F01F
:1025100097C0B0921102A092100280911002909187
:102520001102E816F90608F473C0DD24E0915C148A
:10253000F0915D1480818823E9F1E0915C14F091C1
:102540005D140580F681E02DC681D7818A819B814B
:10255000E816F90608F485C08E010E5F1F4FC8010A
:102560000E94301B8C899D89892B21F0CE010C960D
:102570000E94301B9E8980911C14891710F490933F
:102580001C149C9DC00111248A5D9B4EB8010E94C1
:10259000DF1AE0911A14F0911B149E89868998170E
:1025A00028F2DD24D394E0915C14F0915D148081D5
:1025B000882319F6B0921102A09210022AC08091CD
:1025C00022148F5F80932214DD2480911D148823B0
:1025D000E1F4DD20D1F48091221481508093221403
:1025E00080912214882309F062CF80911D148130DC
:1025F00041F080E00F900FBECDB7DEB7EBE00C945A
:10260000A01B0E946A1A81E0F5CF90921D14E3CFBF
:10261000DD24E0911A14F0911B14868990E0FC01EE
:10262000EE0FFF1FEE0FFF1FEE0FFF1FE80FF91F4A
:10263000EA5DFB4E8081823040F2DD24D394C5CF29
:10264000E0915C14F0915D140580F681E02D068028
:10265000F781E02D82819381909311028093100283
:102660005CCF9093110280931002D3CF0F931F93EE
:10267000CF93DF93EC01009789F080911A14909129
:102680001B14C817D90751F00FB6F8940F928A851A
:102690009B858956944139F00F900FBEDF91CF9101
:1026A0001F910F9108958C899D8924E180369207AE
:1026B00099F3892B89F78E010E5F1F4FC8010E9485
:1026C000301B9E8980911C14891710F490931C1460
:1026D00089E0989FC00111248A5D9B4EB8010E9439
:1026E000DF1AE0911A14F0911B149E8986899817BD
:1026F00098F20E946A1AD0CF0F931F93CF93DF9363
:102700000FB6F8940F92009709F4A3C0EC018E0164
:102710000E5F1F4FC8010E94301B8C899D89892B39
:1027200021F0CE010C960E94301B89E694E1B8019D
:102730000E94DF1A0F900FBE80911A1490911B1403
:10274000C817D90761F180912414882391F00FB63E
:10275000F8940F92E0915C14F0915D1480818823CD
:1027600069F48FEF9FEF90931102809310020F9006
:102770000FBEDF91CF911F910F910895E0915C14EE
:10278000F0915D140580F681E02D0680F781E02D43
:10279000828193819093110280931002E8CF8091FF
:1027A0002414882309F05EC0909123148091691449
:1027B000891709F45AC080912114882309F04EC06A
:1027C00010921D14E0911A14F0911B14A0911A1488
:1027D000B0911B142081318157968D919C9158970F
:1027E0008217930730F046C080911C14815080936B
:1027F0001C1480911C1490E0FC01EE0FFF1FEE0FE3
:10280000FF1FEE0FFF1FE80FF91FEA5DFB4E8081EF
:10281000882351F390911C1489E0989FD0011124D2
:10282000AA5DBB4E1196ED91FC9112970280F38147
:10283000E02D1296FC93EE931197CD010396E817C5
:10284000F90729F18681978190931B1480931A14BC
:1028500090CFC0911A14D0911B1459CF81E080936E
:102860001D1487CF0E946A1A84CF10921B141092F5
:102870001A147FCF80911A1490911B1460911A142E
:1028800070911B14675E7F4F0E94C503B2CF828197
:10289000938111968C93119712969C939C01F90148
:1028A000D1CFA0E0B0E0E7E5F4E10C94841B9C01FB
:1028B000009741F40E946A1ACDB7DEB7EBE00C94A2
:1028C000A01B77C1809121148F5F80932114C09148
:1028D0001E14D0911F14C20FD31F80911A1490910F
:1028E0001B1402960E94301BE0911A14F0911B14E5
:1028F000D383C28380911E1490911F14C817D907E7
:1029000008F45BC080915C1490915D1460911A147E
:1029100070911B146E5F7F4F0E94FE1A809110020F
:1029200090911102C817D90720F4D0931102C093D7
:1029300010020FB6F8940F92809121148150809369
:10294000211480912114882309F04DC08091231413
:10295000882309F448C099E0F92EEE24E39480918D
:1029600060148823B9F1E0916514F0916614C68172
:10297000D781CE010C960E94301B8E010E5F1F4F37
:10298000C8010E94301B9E8980911C14891710F485
:1029900090931C149F9DC00111248A5D9B4EB80129
:1029A0000E94DF1AE0911A14F0911B149E89868907
:1029B0009817A8F2E0921D14D2CF80915E149091E6
:1029C0005F1460911A1470911B146E5F7F4F0E9408
:1029D000FE1AAFCF80912214882389F480911D14B0
:1029E000813009F495C080E00F900FBE882309F470
:1029F00061CFCDB7DEB7EBE00C94A01BDAC08091BD
:102A00002214882359F389E0C82EAA24AA94BA2C48
:102A10009924939480912114882309F07DC080919A
:102A20001E1490911F14019690931F1480931E14EE
:102A3000E0901E14F0901F14E114F10409F52091A8
:102A40005C1430915D1480915E1490915F149093AA
:102A50005D1480935C1430935F1420935E14809116
:102A600020148F5F80932014E0915C14F0915D142A
:102A70008081882309F087C0B0921102A0921002D1
:102A80008091100290911102E816F90608F45EC0D8
:102A9000DD24E0915C14F0915D148081882309F4B9
:102AA0006DC0E0915C14F0915D140580F681E02D1D
:102AB000C681D7818A819B81E816F90608F474C023
:102AC0008E010E5F1F4FC8010E94301B8C899D89AB
:102AD000892B21F0CE010C960E94301B9E8980919B
:102AE0001C14891710F490931C149C9DC001112490
:102AF0008A5D9B4EB8010E94DF1AE0911A14F09192
:102B00001B149E898689981720F2DD24D394C1CFA7
:102B10000E946A1A81E068CF809122148F5F8093AF
:102B20002214DD2480911D14882369F4DD2059F4DA
:102B30008091221481508093221480912214882342
:102B400009F068CF4BCF90921D14F2CFDD24E091B5
:102B50001A14F0911B14868990E0FC01EE0FFF1F00
:102B6000EE0FFF1FEE0FFF1FE80FF91FEA5DFB4E90
:102B700080818230B8F2DD24D394D4CFB092110298
:102B8000A0921002E4CFE0915C14F0915D140580F6
:102B9000F681E02D0680F781E02D8281938190936C
:102BA0001102809310026CCF909311028093100257
:102BB000CECFA0E0B0E0EFEDF5E10C94841BFC017A
:102BC000EB01809121148F5F8093211420911E14BA
:102BD00030911F1480819181C80FD91F28173907A0
:102BE00008F016C1C817D90708F024C12C173D07F3
:102BF00008F020C1D183C08380911A1490911B14D6
:102C000002960E94301BE0911A14F0911B14D3839A
:102C1000C28380911E1490911F14C817D90708F41D
:102C2000FCC080915C1490915D1460911A147091B5
:102C30001B146E5F7F4F0E94FE1A809110029091CC
:102C40001102C817D90720F4D0931102C0931002C3
:102C50000FB6F8940F928091211481508093211423
:102C600080912114882309F003C1809123148823C3
:102C700009F4FEC049E0F42EEE24E3948091601440
:102C8000882369F1E0916514F0916614C681D781BB
:102C9000CE010C960E94301B8E010E5F1F4FC801A3
:102CA0000E94301B9E8980911C14891710F4909308
:102CB0001C149F9DC00111248A5D9B4EB8010E9487
:102CC000DF1AE0911A14F0911B149E8986899817D7
:102CD000A8F2E0921D1480916014882399F68091E7
:102CE0002214882309F4BFC080912214882309F498
:102CF000BAC039E0C32EAA24AA94BA2C992493947A
:102D000080912114882309F098C080911E1490911D
:102D10001F14019690931F1480931E14E0901E14AC
:102D2000F0901F14E114F10409F520915C14309126
:102D30005D1480915E1490915F1490935D14809364
:102D40005C1430935F1420935E14809120148F5F85
:102D500080932014E0915C14F0915D1480818823AD
:102D600009F0ADC0B0921102A09210028091100241
:102D700090911102E816F90608F489C0DD24E0916B
:102D80005C14F0915D1480818823E9F1E0915C147A
:102D9000F0915D140580F681E02DC681D7818A818E
:102DA0009B81E816F90608F49BC08E010E5F1F4F49
:102DB000C8010E94301B8C899D89892B21F0CE018E
:102DC0000C960E94301B9E8980911C14891710F468
:102DD00090931C149C9DC00111248A5D9B4EB801E8
:102DE0000E94DF1AE0911A14F0911B149E898689C3
:102DF000981728F2DD24D394E0915C14F0915D14CF
:102E00008081882319F6B0921102A092100240C06E
:102E1000C817D90708F4EECEE9CE80915E149091E0
:102E20005F1460911A1470911B146E5F7F4F0E94A3
:102E3000FE1A0ECFD183C0830BCF809122148F5FF7
:102E400080932214DD2480911D148823E9F4DD2071
:102E5000D9F48091221481508093221480912214FD
:102E6000882309F04DCF80911D14813009F43DC0B5
:102E700080E00F900FBE882311F40E946A1ACDB72C
:102E8000DEB7EBE00C94A01B90921D14E2CFDD2482
:102E9000E0911A14F0911B14868990E0FC01EE0F6A
:102EA000FF1FEE0FFF1FEE0FFF1FE80FF91FEA5D78
:102EB000FB4E8081823038F2DD24D394C4CFE09180
:102EC0005C14F0915D140580F681E02D0680F78199
:102ED000E02D82819381909311028093100246CF5E
:102EE0009093110280931002D3CF0E946A1A81E05E
:102EF000C0CFF894109224140E94EA190895A0E01B
:102F0000B0E0E5E8F7E10C947D1B2C01362E272E6E
:102F10005A013901102F470182E290E00E94E20C31
:102F2000EC01009709F4A8C0C114D10409F498C0B9
:102F3000D88ECF8AC60165EA70E0A5010E94ED0037
:102F4000EF88F88C832D922D9C01F901DE0190E031
:102F5000808159968C9359978081882329F09F5FAF
:102F6000319611969830A1F718A2012F143008F06D
:102F700075C00E8B09A372E0C72ED12CCC0EDD1EBE
:102F8000C6010E94DB1ACE010C960E94DB1AD9877B
:102F9000C88784E090E0801B91099D878C87DB8B3C
:102FA000CA8B0894A108B108C7018A0D9B1DB20104
:102FB000A3010E945619998388838114910419F002
:102FC000F401D183C0830FB6F8940F92809123143B
:102FD0008F5F8093231480911A1490911B14892B76
:102FE00009F451C080912414882359F4E0911A14F3
:102FF000F0911B148689181720F0D0931B14C093EE
:103000001A14809125148F5F809325149E898091D6
:103010001C14891710F490931C1489E0989FC00128
:1030200011248A5D9B4EB6010E94DF1A0F900FBEDD
:1030300080912414882359F0E0911A14F0911B1404
:103040008689811720F40E946A1A81E001C081E01C
:10305000CDB7DEB7E2E10C94991B4DC003E089CFF8
:10306000C5010E94E20C6C01988F8F8B009709F0CC
:1030700061CFCE010E946F0C8FEFCDB7DEB7E2E1DA
:103080000C94991B38C0D0931B14C0931A148091D0
:103090002314813009F0B5CF86E294E10E94CB1A67
:1030A0008FE294E10E94CB1A88E394E10E94CB1A4C
:1030B00081E494E10E94CB1A6AE4E62E64E1F62EE4
:1030C000C7010E94CB1A53E5A52E54E1B52EC501C8
:1030D0000E94CB1A80E694E10E94CB1A89E694E123
:1030E0000E94CB1AF0925D14E0925C14B0925F14CF
:1030F000A0925E1486CFA0E0B0E0E1E8F8E10C9485
:10310000871B82E290E00E94E20CEC01009709F438
:103110008AC085E590E00E94E20C988F8F8B009723
:1031200009F4BCC065EA70E045E550E00E94ED009E
:103130000F89188DE7E0F2E0DE01808159968C93CB
:1031400059978081882331F03196119682E0EF30D3
:10315000F80799F718A21E8A19A2F2E0CF2ED12CF7
:10316000CC0EDD1EC6010E94DB1ACE010C960E9419
:10317000DB1AD987C88784E090E09D878C87DB8B3A
:10318000CA8BC8018C5A9F4F6CE970E040E050E058
:103190000E945619998388830FB6F8940F928091F4
:1031A00023148F5F8093231480911A1490911B1421
:1031B000892B09F43EC080912414882359F4E091AE
:1031C0001A14F0911B148689882321F4D0931B14C0
:1031D000C0931A14809125148F5F809325149E89C3
:1031E00080911C14891710F490931C1489E0989F07
:1031F000C00111248A5D9B4EB6010E94DF1A0F9018
:103200000FBE80912414882321F080911A1490918C
:103210001B14F89481E08093241410921F141092D0
:103220001E140E94A119CDB7DEB7E8E00C94A31BD1
:103230003DC0D0931B14C0931A1480912314813085
:1032400049F686E294E10E94CB1A8FE294E10E9453
:10325000CB1A88E394E10E94CB1A81E494E10E94A6
:10326000CB1AEAE4EE2EE4E1FE2EC7010E94CB1A4F
:1032700003E514E1C8010E94CB1A80E694E10E94A4
:10328000CB1A89E694E10E94CB1AF0925D14E09289
:103290005C1410935F1400935E149CCFCE010E94C7
:1032A0006F0CCDB7DEB7E8E00C94A31BFC0191E1F5
:1032B000908322E2229383E3829362937293129229
:1032C000129280E8829312921292129282E082937A
:1032D00083E0829384E0829385E0829386E0829308
:1032E00087E0829388E0829389E0829380E18293F1
:1032F000929382E1829383E1829384E1829385E1D8
:10330000829386E1829387E1829388E1829389E1C7
:10331000829380E2829381E28293229383E282937A
:103320004293529386E2829387E2829388E2829369
:1033300089E2829380E3829381E382933197CF0184
:10334000089584EF91E09093731480937214909396
:1033500075148093741481E08093990083EF8093B7
:1033600098008BE080939100E1E7F0E0808182603B
:103370008083A0911A14B0911B14CD91CDBFDD9123
:10338000DEBFFF91EF91DF91CF91BF91AF919F9100
:103390008F917F916F915F914F913F912F911F91ED
:1033A0000F91FF90EF90DF90CF90BF90AF909F90E4
:1033B0008F907F906F905F904F903F902F901F90D5
:1033C0000F900CBE0F900BBE0F900FBE0F90089584
:1033D00081E0089508950F920FB6F8940F920BB6FE
:1033E0000F920CB60F921F9211242F923F924F9280
:1033F0005F926F927F928F929F92AF92BF92CF9285
:10340000DF92EF92FF920F931F932F933F934F936F
:103410005F936F937F938F939F93AF93BF93CF935C
:10342000DF93EF93FF93A0911A14B0911B140DB684
:103430000D920EB60D9280917414909175140197AF
:103440009093751480937414892B09F435C00E94ED
:10345000880F882311F00E949111A0911A14B09145
:103460001B14CD91CDBFDD91DEBFFF91EF91DF91B8
:10347000CF91BF91AF919F918F917F916F915F910C
:103480004F913F912F911F910F91FF90EF90DF90FF
:10349000CF90BF90AF909F908F907F906F905F90F4
:1034A0004F903F902F901F900F900CBE0F900BBE2F
:1034B0000F900FBE0F9008950E94C8008091721463
:1034C000909173149093751480937414C0CF0E94DC
:1034D000EB1918950F920FB6F8940F920BB60F9246
:1034E0000CB60F921F9211242F923F924F925F922F
:1034F0006F927F928F929F92AF92BF92CF92DF9204
:10350000EF92FF920F931F932F933F934F935F93ED
:103510006F937F938F939F93AF93BF93CF93DF93DB
:10352000EF93FF93A0911A14B0911B140DB60D9256
:103530000EB60D920E949111A0911A14B0911B1415
:10354000CD91CDBFDD91DEBFFF91EF91DF91CF91A6
:10355000BF91AF919F918F917F916F915F914F91AB
:103560003F912F911F910F91FF90EF90DF90CF909F
:10357000BF90AF909F908F907F906F905F904F9093
:103580003F902F901F900F900CBE0F900BBE0F908E
:103590000FBE0F900895FC019C012D5F3F4F3283B9
:1035A00021838FEF9FEF9483838336832583308736
:1035B000278310820895FC01118610860895AC01BE
:1035C000FC01A181B281FB01B383A28314968D918A
:1035D0009C911597958384831496ED91FC91159792
:1035E0007383628315967C936E931497FB015187C6
:1035F0004087FA0180818F5F80830895CF93DF93A6
:10360000AC01EB01288139818FEF2F3F380701F1A1
:10361000DA01139601C0DF011296ED91FC91139728
:103620008081918128173907B0F7FB83EA83D5831E
:10363000C483BD83AC831396DC93CE9312975987D2
:103640004887FA0180818F5F8083DF91CF91089551
:10365000FA01A781B0851296ED91FC911397E5CF01
:10366000CF93DF93DC011896CD91DC9119971296D8
:103670004D915C91139714968D919C911597FA0139
:103680009583848314962D913C911597F90153836A
:10369000428389819A818A179B0751F019961C925F
:1036A0001E921897888181508883DF91CF91089569
:1036B0003A832983F3CFA1E21A2EAA1BBB1BFD017B
:1036C0000DC0AA1FBB1FEE1FFF1FA217B307E40701
:1036D000F50720F0A21BB30BE40BF50B661F771F59
:1036E000881F991F1A9469F7609570958095909539
:1036F0009B01AC01BD01CF0108952F923F924F92E3
:103700005F926F927F928F929F92AF92BF92CF9271
:10371000DF92EF92FF920F931F93CF93DF93CDB77A
:10372000DEB7CA1BDB0B0FB6F894DEBF0FBECDBFF2
:1037300019942A88398848885F846E847D848C84B3
:103740009B84AA84B984C884DF80EE80FD800C81CC
:103750001B81AA81B981CE0FD11D0FB6F894DEBFAF
:0C3760000FBECDBFED010895F894FFCF1F
:10376C005265644C45440049444C4500FF11FF111F
:02377C00FFFF4D
:00000001FF
